{
  "transactions": [
    {
      "hash": "0x9b6504c4d30742a2657250c606c77468b563632247801390a396ba233b359a1c",
      "transactionType": "CALL",
      "contractName": null,
      "contractAddress": "0x9a8c5da383f3b6a4d07fb9fdef3ac54044e5e6be",
      "function": "safeTransferFrom(address,address,uint256,bytes)",
      "arguments": [
        "0xf3e4D421E826a03848254095455ce818Ace25AF6",
        "0xB078b7db743103a17A1Bad664C8172CAC9beF4f3",
        "2420",
        "0x"
      ],
      "transaction": {
        "from": "0xf3e4d421e826a03848254095455ce818ace25af6",
        "to": "0x9a8c5da383f3b6a4d07fb9fdef3ac54044e5e6be",
        "gas": "0x11fc5",
        "value": "0x0",
        "input": "0xb88d4fde000000000000000000000000f3e4d421e826a03848254095455ce818ace25af6000000000000000000000000b078b7db743103a17a1bad664c8172cac9bef4f3000000000000000000000000000000000000000000000000000000000000097400000000000000000000000000000000000000000000000000000000000000800000000000000000000000000000000000000000000000000000000000000000",
        "nonce": "0x1048",
        "chainId": "0x1"
      },
      "additionalContracts": [],
      "isFixedGasLimit": false
    },
    {
      "hash": "0x92df6813f0d2e5a2c2e7a09a8c9b472b7e6877e0ad8327292125f0894be225fb",
      "transactionType": "CALL",
      "contractName": null,
      "contractAddress": "0x9a8c5da383f3b6a4d07fb9fdef3ac54044e5e6be",
      "function": "safeTransferFrom(address,address,uint256,bytes)",
      "arguments": [
        "0xf3e4D421E826a03848254095455ce818Ace25AF6",
        "0xB078b7db743103a17A1Bad664C8172CAC9beF4f3",
        "2121",
        "0x"
      ],
      "transaction": {
        "from": "0xf3e4d421e826a03848254095455ce818ace25af6",
        "to": "0x9a8c5da383f3b6a4d07fb9fdef3ac54044e5e6be",
        "gas": "0x11fc5",
        "value": "0x0",
        "input": "0xb88d4fde000000000000000000000000f3e4d421e826a03848254095455ce818ace25af6000000000000000000000000b078b7db743103a17a1bad664c8172cac9bef4f3000000000000000000000000000000000000000000000000000000000000084900000000000000000000000000000000000000000000000000000000000000800000000000000000000000000000000000000000000000000000000000000000",
        "nonce": "0x1049",
        "chainId": "0x1"
      },
      "additionalContracts": [],
      "isFixedGasLimit": false
    },
    {
      "hash": "0x379246ab8f9ad0e86b8a3efcaf0745773d1fd79c808c71e8398699da3a408b5b",
      "transactionType": "CALL",
      "contractName": null,
      "contractAddress": "0x9a8c5da383f3b6a4d07fb9fdef3ac54044e5e6be",
      "function": "safeTransferFrom(address,address,uint256,bytes)",
      "arguments": [
        "0xf3e4D421E826a03848254095455ce818Ace25AF6",
        "0xB078b7db743103a17A1Bad664C8172CAC9beF4f3",
        "2446",
        "0x"
      ],
      "transaction": {
        "from": "0xf3e4d421e826a03848254095455ce818ace25af6",
        "to": "0x9a8c5da383f3b6a4d07fb9fdef3ac54044e5e6be",
        "gas": "0x11fc5",
        "value": "0x0",
        "input": "0xb88d4fde000000000000000000000000f3e4d421e826a03848254095455ce818ace25af6000000000000000000000000b078b7db743103a17a1bad664c8172cac9bef4f3000000000000000000000000000000000000000000000000000000000000098e00000000000000000000000000000000000000000000000000000000000000800000000000000000000000000000000000000000000000000000000000000000",
        "nonce": "0x104a",
        "chainId": "0x1"
      },
      "additionalContracts": [],
      "isFixedGasLimit": false
    }
  ],
  "receipts": [
    {
      "status": "0x1",
      "cumulativeGasUsed": "0x196daa0",
      "logs": [
        {
          "address": "0x9a8c5da383f3b6a4d07fb9fdef3ac54044e5e6be",
          "topics": [
            "0x8c5be1e5ebec7d5bd14f71427d1e84f3dd0314c0f7b2291e5b200ac8c7c3b925",
            "0x000000000000000000000000f3e4d421e826a03848254095455ce818ace25af6",
            "0x0000000000000000000000000000000000000000000000000000000000000000",
            "0x0000000000000000000000000000000000000000000000000000000000000974"
          ],
          "data": "0x",
          "blockHash": "0x5f00a62baffeee6599b69a5613a8bebd1f7c0c310bcf980beb3cf4a34367a6f5",
          "blockNumber": "0x14271dd",
          "transactionHash": "0x9b6504c4d30742a2657250c606c77468b563632247801390a396ba233b359a1c",
          "transactionIndex": "0x16d",
          "logIndex": "0x2f0",
          "removed": false
        },
        {
          "address": "0x9a8c5da383f3b6a4d07fb9fdef3ac54044e5e6be",
          "topics": [
            "0xddf252ad1be2c89b69c2b068fc378daa952ba7f163c4a11628f55a4df523b3ef",
            "0x000000000000000000000000f3e4d421e826a03848254095455ce818ace25af6",
            "0x000000000000000000000000b078b7db743103a17a1bad664c8172cac9bef4f3",
            "0x0000000000000000000000000000000000000000000000000000000000000974"
          ],
          "data": "0x",
          "blockHash": "0x5f00a62baffeee6599b69a5613a8bebd1f7c0c310bcf980beb3cf4a34367a6f5",
          "blockNumber": "0x14271dd",
          "transactionHash": "0x9b6504c4d30742a2657250c606c77468b563632247801390a396ba233b359a1c",
          "transactionIndex": "0x16d",
          "logIndex": "0x2f1",
          "removed": false
        }
      ],
      "logsBloom": "0x00000000000002000000000000000010000000000000000000000000110000000000000000000000000000000000000000000000000000000000000000200000000000000000000000000008000000000000000000000100000000000000000000001200020000000000020000000800000000000000000000000010000000000000000000000000000000000000000000000000000000000000000000000000020000000000000000000000000000000000000000000000000100000000000000000002000000000420000000000000000800000000000000000000000020000010000000000000000000000000000000000000000000000000000000000000",
      "type": "0x2",
      "transactionHash": "0x9b6504c4d30742a2657250c606c77468b563632247801390a396ba233b359a1c",
      "transactionIndex": "0x16d",
      "blockHash": "0x5f00a62baffeee6599b69a5613a8bebd1f7c0c310bcf980beb3cf4a34367a6f5",
      "blockNumber": "0x14271dd",
      "gasUsed": "0xd058",
      "effectiveGasPrice": "0x3d7501c94",
      "from": "0xf3e4d421e826a03848254095455ce818ace25af6",
      "to": "0x9a8c5da383f3b6a4d07fb9fdef3ac54044e5e6be",
      "contractAddress": null
    },
    {
      "status": "0x1",
      "cumulativeGasUsed": "0x197aaf8",
      "logs": [
        {
          "address": "0x9a8c5da383f3b6a4d07fb9fdef3ac54044e5e6be",
          "topics": [
            "0x8c5be1e5ebec7d5bd14f71427d1e84f3dd0314c0f7b2291e5b200ac8c7c3b925",
            "0x000000000000000000000000f3e4d421e826a03848254095455ce818ace25af6",
            "0x0000000000000000000000000000000000000000000000000000000000000000",
            "0x0000000000000000000000000000000000000000000000000000000000000849"
          ],
          "data": "0x",
          "blockHash": "0x5f00a62baffeee6599b69a5613a8bebd1f7c0c310bcf980beb3cf4a34367a6f5",
          "blockNumber": "0x14271dd",
          "transactionHash": "0x92df6813f0d2e5a2c2e7a09a8c9b472b7e6877e0ad8327292125f0894be225fb",
          "transactionIndex": "0x16e",
          "logIndex": "0x2f2",
          "removed": false
        },
        {
          "address": "0x9a8c5da383f3b6a4d07fb9fdef3ac54044e5e6be",
          "topics": [
            "0xddf252ad1be2c89b69c2b068fc378daa952ba7f163c4a11628f55a4df523b3ef",
            "0x000000000000000000000000f3e4d421e826a03848254095455ce818ace25af6",
            "0x000000000000000000000000b078b7db743103a17a1bad664c8172cac9bef4f3",
            "0x0000000000000000000000000000000000000000000000000000000000000849"
          ],
          "data": "0x",
          "blockHash": "0x5f00a62baffeee6599b69a5613a8bebd1f7c0c310bcf980beb3cf4a34367a6f5",
          "blockNumber": "0x14271dd",
          "transactionHash": "0x92df6813f0d2e5a2c2e7a09a8c9b472b7e6877e0ad8327292125f0894be225fb",
          "transactionIndex": "0x16e",
          "logIndex": "0x2f3",
          "removed": false
        }
      ],
      "logsBloom": "0x00000000000002000000000000000010000000000000000000000000100000000000000000000000000000000000000000000000000000000000000000200000000000000000000000000008000000000000000000000100000000000000000000001000020000000000020000000800000000080000000000000010000000000000000000200000000000000000000000000000000000000400000000000000020000000000000000000000000000000000000000000000000000000000000000000002000000000420000000000000000800000000000000000000000020000010000000000000000000000000000000000000000000000000000000000000",
      "type": "0x2",
      "transactionHash": "0x92df6813f0d2e5a2c2e7a09a8c9b472b7e6877e0ad8327292125f0894be225fb",
      "transactionIndex": "0x16e",
      "blockHash": "0x5f00a62baffeee6599b69a5613a8bebd1f7c0c310bcf980beb3cf4a34367a6f5",
      "blockNumber": "0x14271dd",
      "gasUsed": "0xd058",
      "effectiveGasPrice": "0x3d7501c94",
      "from": "0xf3e4d421e826a03848254095455ce818ace25af6",
      "to": "0x9a8c5da383f3b6a4d07fb9fdef3ac54044e5e6be",
      "contractAddress": null
    },
    {
      "status": "0x1",
      "cumulativeGasUsed": "0x1987b50",
      "logs": [
        {
          "address": "0x9a8c5da383f3b6a4d07fb9fdef3ac54044e5e6be",
          "topics": [
            "0x8c5be1e5ebec7d5bd14f71427d1e84f3dd0314c0f7b2291e5b200ac8c7c3b925",
            "0x000000000000000000000000f3e4d421e826a03848254095455ce818ace25af6",
            "0x0000000000000000000000000000000000000000000000000000000000000000",
            "0x000000000000000000000000000000000000000000000000000000000000098e"
          ],
          "data": "0x",
          "blockHash": "0x5f00a62baffeee6599b69a5613a8bebd1f7c0c310bcf980beb3cf4a34367a6f5",
          "blockNumber": "0x14271dd",
          "transactionHash": "0x379246ab8f9ad0e86b8a3efcaf0745773d1fd79c808c71e8398699da3a408b5b",
          "transactionIndex": "0x16f",
          "logIndex": "0x2f4",
          "removed": false
        },
        {
          "address": "0x9a8c5da383f3b6a4d07fb9fdef3ac54044e5e6be",
          "topics": [
            "0xddf252ad1be2c89b69c2b068fc378daa952ba7f163c4a11628f55a4df523b3ef",
            "0x000000000000000000000000f3e4d421e826a03848254095455ce818ace25af6",
            "0x000000000000000000000000b078b7db743103a17a1bad664c8172cac9bef4f3",
            "0x000000000000000000000000000000000000000000000000000000000000098e"
          ],
          "data": "0x",
          "blockHash": "0x5f00a62baffeee6599b69a5613a8bebd1f7c0c310bcf980beb3cf4a34367a6f5",
          "blockNumber": "0x14271dd",
          "transactionHash": "0x379246ab8f9ad0e86b8a3efcaf0745773d1fd79c808c71e8398699da3a408b5b",
          "transactionIndex": "0x16f",
          "logIndex": "0x2f5",
          "removed": false
        }
      ],
      "logsBloom": "0x00000000000002000000000000000010000000000000000000000000140000000000000000000000000000000000000000000002000000000000000000200000000000000000000000000008000000000000000000000100000000000000000000001000020000000000020000000800000000000000000000000010000000000000000000000000000000000000000000000000000000000000000000000000020000000000000000000000000000000000001000000000000000000000000000000002000000000420000000000000000800000000000000000000000020000010000000000000000000000000000000000000000000000000000000000000",
      "type": "0x2",
      "transactionHash": "0x379246ab8f9ad0e86b8a3efcaf0745773d1fd79c808c71e8398699da3a408b5b",
      "transactionIndex": "0x16f",
      "blockHash": "0x5f00a62baffeee6599b69a5613a8bebd1f7c0c310bcf980beb3cf4a34367a6f5",
      "blockNumber": "0x14271dd",
      "gasUsed": "0xd058",
      "effectiveGasPrice": "0x3d7501c94",
      "from": "0xf3e4d421e826a03848254095455ce818ace25af6",
      "to": "0x9a8c5da383f3b6a4d07fb9fdef3ac54044e5e6be",
      "contractAddress": null
    }
  ],
  "libraries": [],
  "pending": [],
  "returns": {},
  "timestamp": 1730933870,
  "chain": 1,
  "commit": "f7b82bf"
}