{
  "transactions": [
    {
      "hash": "0xc640152dc9b2281310afe2d32966c325c19fe1c86a7599240233eefec3198e1f",
      "transactionType": "CALL",
      "contractName": null,
      "contractAddress": "0x2a46f2ffd99e19a89476e2f62270e0a35bbf0756",
      "function": "safeTransferFrom(address,address,uint256,bytes)",
      "arguments": [
        "0xf3e4D421E826a03848254095455ce818Ace25AF6",
        "0xB078b7db743103a17A1Bad664C8172CAC9beF4f3",
        "66188",
        "0x"
      ],
      "transaction": {
        "from": "0xf3e4d421e826a03848254095455ce818ace25af6",
        "to": "0x2a46f2ffd99e19a89476e2f62270e0a35bbf0756",
        "gas": "0x25b55",
        "value": "0x0",
        "input": "0xb88d4fde000000000000000000000000f3e4d421e826a03848254095455ce818ace25af6000000000000000000000000b078b7db743103a17a1bad664c8172cac9bef4f3000000000000000000000000000000000000000000000000000000000001028c00000000000000000000000000000000000000000000000000000000000000800000000000000000000000000000000000000000000000000000000000000000",
        "nonce": "0x103c",
        "chainId": "0x1"
      },
      "additionalContracts": [],
      "isFixedGasLimit": false
    },
    {
      "hash": "0x8cfa63b12a892054e7498a84fce252ad50a55ef5b276182c52f16659c19beb84",
      "transactionType": "CALL",
      "contractName": null,
      "contractAddress": "0x57f1887a8bf19b14fc0df6fd9b2acc9af147ea85",
      "function": "safeTransferFrom(address,address,uint256,bytes)",
      "arguments": [
        "0xf3e4D421E826a03848254095455ce818Ace25AF6",
        "0xB078b7db743103a17A1Bad664C8172CAC9beF4f3",
        "31454628001679799008737945661928461194404124345981566290825646655171877507083",
        "0x"
      ],
      "transaction": {
        "from": "0xf3e4d421e826a03848254095455ce818ace25af6",
        "to": "0x57f1887a8bf19b14fc0df6fd9b2acc9af147ea85",
        "gas": "0x11a3a",
        "value": "0x0",
        "input": "0xb88d4fde000000000000000000000000f3e4d421e826a03848254095455ce818ace25af6000000000000000000000000b078b7db743103a17a1bad664c8172cac9bef4f3458ab044839faa4b7c08eb40b63f9d56885abb9090911d80ec91631fc471900b00000000000000000000000000000000000000000000000000000000000000800000000000000000000000000000000000000000000000000000000000000000",
        "nonce": "0x103d",
        "chainId": "0x1"
      },
      "additionalContracts": [],
      "isFixedGasLimit": false
    },
    {
      "hash": null,
      "transactionType": "CALL",
      "contractName": null,
      "contractAddress": "0x57f1887a8bf19b14fc0df6fd9b2acc9af147ea85",
      "function": "safeTransferFrom(address,address,uint256,bytes)",
      "arguments": [
        "0xf3e4D421E826a03848254095455ce818Ace25AF6",
        "0xB078b7db743103a17A1Bad664C8172CAC9beF4f3",
        "53441800155075373382179176051030037391414137077740982316683898035324416983405",
        "0x"
      ],
      "transaction": {
        "from": "0xf3e4d421e826a03848254095455ce818ace25af6",
        "to": "0x57f1887a8bf19b14fc0df6fd9b2acc9af147ea85",
        "gas": "0x11a3a",
        "value": "0x0",
        "input": "0xb88d4fde000000000000000000000000f3e4d421e826a03848254095455ce818ace25af6000000000000000000000000b078b7db743103a17a1bad664c8172cac9bef4f37626fcaa63dfee10f39f18aa6e050739669397020d50790c376084b276ec816d00000000000000000000000000000000000000000000000000000000000000800000000000000000000000000000000000000000000000000000000000000000",
        "nonce": "0x103e",
        "chainId": "0x1"
      },
      "additionalContracts": [],
      "isFixedGasLimit": false
    },
    {
      "hash": null,
      "transactionType": "CALL",
      "contractName": null,
      "contractAddress": "0x57f1887a8bf19b14fc0df6fd9b2acc9af147ea85",
      "function": "safeTransferFrom(address,address,uint256,bytes)",
      "arguments": [
        "0xf3e4D421E826a03848254095455ce818Ace25AF6",
        "0xB078b7db743103a17A1Bad664C8172CAC9beF4f3",
        "85090676491754845085457365056798642251174911340225756075814576198066962321657",
        "0x"
      ],
      "transaction": {
        "from": "0xf3e4d421e826a03848254095455ce818ace25af6",
        "to": "0x57f1887a8bf19b14fc0df6fd9b2acc9af147ea85",
        "gas": "0xfece",
        "value": "0x0",
        "input": "0xb88d4fde000000000000000000000000f3e4d421e826a03848254095455ce818ace25af6000000000000000000000000b078b7db743103a17a1bad664c8172cac9bef4f3bc1f9dbe17fd25979899ea361be460a43806cba5e5e8ce48974d34a7a26650f900000000000000000000000000000000000000000000000000000000000000800000000000000000000000000000000000000000000000000000000000000000",
        "nonce": "0x103f",
        "chainId": "0x1"
      },
      "additionalContracts": [],
      "isFixedGasLimit": false
    }
  ],
  "receipts": [],
  "libraries": [],
  "pending": [
    "0xc640152dc9b2281310afe2d32966c325c19fe1c86a7599240233eefec3198e1f",
    "0x8cfa63b12a892054e7498a84fce252ad50a55ef5b276182c52f16659c19beb84"
  ],
  "returns": {},
  "timestamp": 1730932604,
  "chain": 1,
  "commit": "f7b82bf"
}