{
  "transactions": [
    {
      "hash": "0xc822b16cd5feb221a2cdadf3bdfa2ed07bb4493dc5c627115948e94e47ab3516",
      "transactionType": "CALL",
      "contractName": null,
      "contractAddress": "0xda22422592ee3623c8d3c40fe0059cdecf30ca79",
      "function": "safeTransferFrom(address,address,uint256,bytes)",
      "arguments": [
        "0xf3e4D421E826a03848254095455ce818Ace25AF6",
        "0xB078b7db743103a17A1Bad664C8172CAC9beF4f3",
        "25254",
        "0x"
      ],
      "transaction": {
        "from": "0xf3e4d421e826a03848254095455ce818ace25af6",
        "to": "0xda22422592ee3623c8d3c40fe0059cdecf30ca79",
        "gas": "0x16157",
        "value": "0x0",
        "input": "0xb88d4fde000000000000000000000000f3e4d421e826a03848254095455ce818ace25af6000000000000000000000000b078b7db743103a17a1bad664c8172cac9bef4f300000000000000000000000000000000000000000000000000000000000062a600000000000000000000000000000000000000000000000000000000000000800000000000000000000000000000000000000000000000000000000000000000",
        "nonce": "0x1042",
        "chainId": "0x1"
      },
      "additionalContracts": [],
      "isFixedGasLimit": false
    },
    {
      "hash": "0x5bdf59a43eb5725e4d5b4300574541218b6c6ad4f84faefd1364d416649080ac",
      "transactionType": "CALL",
      "contractName": null,
      "contractAddress": "0xfc0946b334b3ba133d239207a4d01da1b75cf51b",
      "function": "safeTransferFrom(address,address,uint256,bytes)",
      "arguments": [
        "0xf3e4D421E826a03848254095455ce818Ace25AF6",
        "0xB078b7db743103a17A1Bad664C8172CAC9beF4f3",
        "502",
        "0x"
      ],
      "transaction": {
        "from": "0xf3e4d421e826a03848254095455ce818ace25af6",
        "to": "0xfc0946b334b3ba133d239207a4d01da1b75cf51b",
        "gas": "0xed13",
        "value": "0x0",
        "input": "0xb88d4fde000000000000000000000000f3e4d421e826a03848254095455ce818ace25af6000000000000000000000000b078b7db743103a17a1bad664c8172cac9bef4f300000000000000000000000000000000000000000000000000000000000001f600000000000000000000000000000000000000000000000000000000000000800000000000000000000000000000000000000000000000000000000000000000",
        "nonce": "0x1043",
        "chainId": "0x1"
      },
      "additionalContracts": [],
      "isFixedGasLimit": false
    }
  ],
  "receipts": [
    {
      "status": "0x1",
      "cumulativeGasUsed": "0x3ec66f",
      "logs": [
        {
          "address": "0xda22422592ee3623c8d3c40fe0059cdecf30ca79",
          "topics": [
            "0x8c5be1e5ebec7d5bd14f71427d1e84f3dd0314c0f7b2291e5b200ac8c7c3b925",
            "0x000000000000000000000000f3e4d421e826a03848254095455ce818ace25af6",
            "0x0000000000000000000000000000000000000000000000000000000000000000",
            "0x00000000000000000000000000000000000000000000000000000000000062a6"
          ],
          "data": "0x",
          "blockHash": "0xef435af4af9d6b7a6c950968c6305574defa18f258ceba030bf6f1431a05b6db",
          "blockNumber": "0x1427187",
          "transactionHash": "0xc822b16cd5feb221a2cdadf3bdfa2ed07bb4493dc5c627115948e94e47ab3516",
          "transactionIndex": "0x27",
          "logIndex": "0x74",
          "removed": false
        },
        {
          "address": "0xda22422592ee3623c8d3c40fe0059cdecf30ca79",
          "topics": [
            "0xddf252ad1be2c89b69c2b068fc378daa952ba7f163c4a11628f55a4df523b3ef",
            "0x000000000000000000000000f3e4d421e826a03848254095455ce818ace25af6",
            "0x000000000000000000000000b078b7db743103a17a1bad664c8172cac9bef4f3",
            "0x00000000000000000000000000000000000000000000000000000000000062a6"
          ],
          "data": "0x",
          "blockHash": "0xef435af4af9d6b7a6c950968c6305574defa18f258ceba030bf6f1431a05b6db",
          "blockNumber": "0x1427187",
          "transactionHash": "0xc822b16cd5feb221a2cdadf3bdfa2ed07bb4493dc5c627115948e94e47ab3516",
          "transactionIndex": "0x27",
          "logIndex": "0x75",
          "removed": false
        }
      ],
      "logsBloom": "0x00000000000002000000000000000010000000000000000000000000000000000000000000000000000000000000000200000000000000000000000000200000000000000000000000000008000000000000000000000000000000000000000000000000020000000000020000000800000000000020000000000010000000000000000000000000000000000000000000000000000000000000000000000000020000008000000000000000000000001000000000000000000000000000000000000002000000000424000000000000000800001000000000000000000020000010000000000000000000000000000000000000000000000000000000000000",
      "type": "0x2",
      "transactionHash": "0xc822b16cd5feb221a2cdadf3bdfa2ed07bb4493dc5c627115948e94e47ab3516",
      "transactionIndex": "0x27",
      "blockHash": "0xef435af4af9d6b7a6c950968c6305574defa18f258ceba030bf6f1431a05b6db",
      "blockNumber": "0x1427187",
      "gasUsed": "0xffd0",
      "effectiveGasPrice": "0x43b5d17a3",
      "from": "0xf3e4d421e826a03848254095455ce818ace25af6",
      "to": "0xda22422592ee3623c8d3c40fe0059cdecf30ca79",
      "contractAddress": null
    },
    {
      "status": "0x1",
      "cumulativeGasUsed": "0x3f7213",
      "logs": [
        {
          "address": "0xfc0946b334b3ba133d239207a4d01da1b75cf51b",
          "topics": [
            "0x8c5be1e5ebec7d5bd14f71427d1e84f3dd0314c0f7b2291e5b200ac8c7c3b925",
            "0x000000000000000000000000f3e4d421e826a03848254095455ce818ace25af6",
            "0x0000000000000000000000000000000000000000000000000000000000000000",
            "0x00000000000000000000000000000000000000000000000000000000000001f6"
          ],
          "data": "0x",
          "blockHash": "0xef435af4af9d6b7a6c950968c6305574defa18f258ceba030bf6f1431a05b6db",
          "blockNumber": "0x1427187",
          "transactionHash": "0x5bdf59a43eb5725e4d5b4300574541218b6c6ad4f84faefd1364d416649080ac",
          "transactionIndex": "0x28",
          "logIndex": "0x76",
          "removed": false
        },
        {
          "address": "0xfc0946b334b3ba133d239207a4d01da1b75cf51b",
          "topics": [
            "0xddf252ad1be2c89b69c2b068fc378daa952ba7f163c4a11628f55a4df523b3ef",
            "0x000000000000000000000000f3e4d421e826a03848254095455ce818ace25af6",
            "0x000000000000000000000000b078b7db743103a17a1bad664c8172cac9bef4f3",
            "0x00000000000000000000000000000000000000000000000000000000000001f6"
          ],
          "data": "0x",
          "blockHash": "0xef435af4af9d6b7a6c950968c6305574defa18f258ceba030bf6f1431a05b6db",
          "blockNumber": "0x1427187",
          "transactionHash": "0x5bdf59a43eb5725e4d5b4300574541218b6c6ad4f84faefd1364d416649080ac",
          "transactionIndex": "0x28",
          "logIndex": "0x77",
          "removed": false
        }
      ],
      "logsBloom": "0x00000000000002000000000000000010000000000000000000000000000000000000000000000000000000400000000000000000000000000000000000200000000000000400000000000008000000000000000000000000000000000000000000000000020000000000020000000800000000000000000000000010000000000000000000000000000000000000000000000000000000000000000000080000028000000000000000000000000000000400000000000000000000000000000000000002000000000420000000000000000800000000000000000000000020000010000000000000000000000000000000000000000000000000000000000000",
      "type": "0x2",
      "transactionHash": "0x5bdf59a43eb5725e4d5b4300574541218b6c6ad4f84faefd1364d416649080ac",
      "transactionIndex": "0x28",
      "blockHash": "0xef435af4af9d6b7a6c950968c6305574defa18f258ceba030bf6f1431a05b6db",
      "blockNumber": "0x1427187",
      "gasUsed": "0xaba4",
      "effectiveGasPrice": "0x43b5d17a3",
      "from": "0xf3e4d421e826a03848254095455ce818ace25af6",
      "to": "0xfc0946b334b3ba133d239207a4d01da1b75cf51b",
      "contractAddress": null
    }
  ],
  "libraries": [],
  "pending": [],
  "returns": {},
  "timestamp": 1730932837,
  "chain": 1,
  "commit": "f7b82bf"
}