{
  "transactions": [
    {
      "hash": "0x901a681294c4c78ce1dedfa3c135d3f2da730be57592fda2bd74e8eea6115e8f",
      "transactionType": "CALL",
      "contractName": null,
      "contractAddress": "0x5f5541c618e76ab98361cdb10c67d1de28740cc3",
      "function": "safeTransferFrom(address,address,uint256,bytes)",
      "arguments": [
        "0xf3e4D421E826a03848254095455ce818Ace25AF6",
        "0xB078b7db743103a17A1Bad664C8172CAC9beF4f3",
        "675",
        "0x"
      ],
      "transaction": {
        "from": "0xf3e4d421e826a03848254095455ce818ace25af6",
        "to": "0x5f5541c618e76ab98361cdb10c67d1de28740cc3",
        "gas": "0x14975",
        "value": "0x0",
        "input": "0xb88d4fde000000000000000000000000f3e4d421e826a03848254095455ce818ace25af6000000000000000000000000b078b7db743103a17a1bad664c8172cac9bef4f300000000000000000000000000000000000000000000000000000000000002a300000000000000000000000000000000000000000000000000000000000000800000000000000000000000000000000000000000000000000000000000000000",
        "nonce": "0x1040",
        "chainId": "0x1"
      },
      "additionalContracts": [],
      "isFixedGasLimit": false
    },
    {
      "hash": "0x259c77d34e38fc008a839be8088115e158ca041a5c368bec808875a74cdbac49",
      "transactionType": "CALL",
      "contractName": null,
      "contractAddress": "0x3b3ee1931dc30c1957379fac9aba94d1c48a5405",
      "function": "safeTransferFrom(address,address,uint256,bytes)",
      "arguments": [
        "0xf3e4D421E826a03848254095455ce818Ace25AF6",
        "0xB078b7db743103a17A1Bad664C8172CAC9beF4f3",
        "32413",
        "0x"
      ],
      "transaction": {
        "from": "0xf3e4d421e826a03848254095455ce818ace25af6",
        "to": "0x3b3ee1931dc30c1957379fac9aba94d1c48a5405",
        "gas": "0x2877d",
        "value": "0x0",
        "input": "0xb88d4fde000000000000000000000000f3e4d421e826a03848254095455ce818ace25af6000000000000000000000000b078b7db743103a17a1bad664c8172cac9bef4f30000000000000000000000000000000000000000000000000000000000007e9d00000000000000000000000000000000000000000000000000000000000000800000000000000000000000000000000000000000000000000000000000000000",
        "nonce": "0x1041",
        "chainId": "0x1"
      },
      "additionalContracts": [],
      "isFixedGasLimit": false
    }
  ],
  "receipts": [
    {
      "status": "0x1",
      "cumulativeGasUsed": "0xca07a6",
      "logs": [
        {
          "address": "0x5f5541c618e76ab98361cdb10c67d1de28740cc3",
          "topics": [
            "0x8c5be1e5ebec7d5bd14f71427d1e84f3dd0314c0f7b2291e5b200ac8c7c3b925",
            "0x000000000000000000000000f3e4d421e826a03848254095455ce818ace25af6",
            "0x0000000000000000000000000000000000000000000000000000000000000000",
            "0x00000000000000000000000000000000000000000000000000000000000002a3"
          ],
          "data": "0x",
          "blockHash": "0x7861c12d52eb97b171e1add81f9f726509ff7e41fd377ccf2ca80f4b58c4b206",
          "blockNumber": "0x1427184",
          "transactionHash": "0x901a681294c4c78ce1dedfa3c135d3f2da730be57592fda2bd74e8eea6115e8f",
          "transactionIndex": "0x77",
          "logIndex": "0x12e",
          "removed": false
        },
        {
          "address": "0x5f5541c618e76ab98361cdb10c67d1de28740cc3",
          "topics": [
            "0xddf252ad1be2c89b69c2b068fc378daa952ba7f163c4a11628f55a4df523b3ef",
            "0x000000000000000000000000f3e4d421e826a03848254095455ce818ace25af6",
            "0x000000000000000000000000b078b7db743103a17a1bad664c8172cac9bef4f3",
            "0x00000000000000000000000000000000000000000000000000000000000002a3"
          ],
          "data": "0x",
          "blockHash": "0x7861c12d52eb97b171e1add81f9f726509ff7e41fd377ccf2ca80f4b58c4b206",
          "blockNumber": "0x1427184",
          "transactionHash": "0x901a681294c4c78ce1dedfa3c135d3f2da730be57592fda2bd74e8eea6115e8f",
          "transactionIndex": "0x77",
          "logIndex": "0x12f",
          "removed": false
        }
      ],
      "logsBloom": "0x00000000000002000000000000000010000000000000000000000000000000000000000000000000000000000000000000000000000000000000000000200000000000000000000000000008000000000000000000000000000000000000000000000000020000000000020200000800000000000020000000000010000000000000000000000000000000000000000000000000000000000000000000000000020000000000000000000000000000000000000000000000000000000100008000000002000002000520000000000000000800000000000000000000000020000010000000000000000000000000000000000000000000000000000000000000",
      "type": "0x2",
      "transactionHash": "0x901a681294c4c78ce1dedfa3c135d3f2da730be57592fda2bd74e8eea6115e8f",
      "transactionIndex": "0x77",
      "blockHash": "0x7861c12d52eb97b171e1add81f9f726509ff7e41fd377ccf2ca80f4b58c4b206",
      "blockNumber": "0x1427184",
      "gasUsed": "0xee86",
      "effectiveGasPrice": "0x441ce19a8",
      "from": "0xf3e4d421e826a03848254095455ce818ace25af6",
      "to": "0x5f5541c618e76ab98361cdb10c67d1de28740cc3",
      "contractAddress": null
    },
    {
      "status": "0x1",
      "cumulativeGasUsed": "0xcbdc6c",
      "logs": [
        {
          "address": "0x3b3ee1931dc30c1957379fac9aba94d1c48a5405",
          "topics": [
            "0x8c5be1e5ebec7d5bd14f71427d1e84f3dd0314c0f7b2291e5b200ac8c7c3b925",
            "0x000000000000000000000000f3e4d421e826a03848254095455ce818ace25af6",
            "0x0000000000000000000000000000000000000000000000000000000000000000",
            "0x0000000000000000000000000000000000000000000000000000000000007e9d"
          ],
          "data": "0x",
          "blockHash": "0x7861c12d52eb97b171e1add81f9f726509ff7e41fd377ccf2ca80f4b58c4b206",
          "blockNumber": "0x1427184",
          "transactionHash": "0x259c77d34e38fc008a839be8088115e158ca041a5c368bec808875a74cdbac49",
          "transactionIndex": "0x78",
          "logIndex": "0x130",
          "removed": false
        },
        {
          "address": "0x3b3ee1931dc30c1957379fac9aba94d1c48a5405",
          "topics": [
            "0xddf252ad1be2c89b69c2b068fc378daa952ba7f163c4a11628f55a4df523b3ef",
            "0x000000000000000000000000f3e4d421e826a03848254095455ce818ace25af6",
            "0x000000000000000000000000b078b7db743103a17a1bad664c8172cac9bef4f3",
            "0x0000000000000000000000000000000000000000000000000000000000007e9d"
          ],
          "data": "0x",
          "blockHash": "0x7861c12d52eb97b171e1add81f9f726509ff7e41fd377ccf2ca80f4b58c4b206",
          "blockNumber": "0x1427184",
          "transactionHash": "0x259c77d34e38fc008a839be8088115e158ca041a5c368bec808875a74cdbac49",
          "transactionIndex": "0x78",
          "logIndex": "0x131",
          "removed": false
        }
      ],
      "logsBloom": "0x00000000000002000000000080000010000000000000000000000000000000000000000000000000000000000000000000000000000000000000000000200000000000000020008000000008000000000000000000000000000000000400000000000000020000000000020000000800000000000000000000000810000000000000000000000000000000000000000000000000000000000000000000000000020000000000000000000000000000000000000000000000000000000000000000000002000000000420000000000000000800000000000000000000000820000010000000000000000000000000000000000000000000000000000000000000",
      "type": "0x2",
      "transactionHash": "0x259c77d34e38fc008a839be8088115e158ca041a5c368bec808875a74cdbac49",
      "transactionIndex": "0x78",
      "blockHash": "0x7861c12d52eb97b171e1add81f9f726509ff7e41fd377ccf2ca80f4b58c4b206",
      "blockNumber": "0x1427184",
      "gasUsed": "0x1d4c6",
      "effectiveGasPrice": "0x441ce19a8",
      "from": "0xf3e4d421e826a03848254095455ce818ace25af6",
      "to": "0x3b3ee1931dc30c1957379fac9aba94d1c48a5405",
      "contractAddress": null
    }
  ],
  "libraries": [],
  "pending": [],
  "returns": {},
  "timestamp": 1730932801,
  "chain": 1,
  "commit": "f7b82bf"
}