{
  "transactions": [
    {
      "hash": "0x4bda2c14fde1063b33e1778f8ed51e987350687052c04d9c4e4441269d69047f",
      "transactionType": "CALL",
      "contractName": null,
      "contractAddress": "0x9a8c5da383f3b6a4d07fb9fdef3ac54044e5e6be",
      "function": "safeTransferFrom(address,address,uint256,bytes)",
      "arguments": [
        "0xf3e4D421E826a03848254095455ce818Ace25AF6",
        "0xB078b7db743103a17A1Bad664C8172CAC9beF4f3",
        "2454",
        "0x"
      ],
      "transaction": {
        "from": "0xf3e4d421e826a03848254095455ce818ace25af6",
        "to": "0x9a8c5da383f3b6a4d07fb9fdef3ac54044e5e6be",
        "gas": "0x11fc5",
        "value": "0x0",
        "input": "0xb88d4fde000000000000000000000000f3e4d421e826a03848254095455ce818ace25af6000000000000000000000000b078b7db743103a17a1bad664c8172cac9bef4f3000000000000000000000000000000000000000000000000000000000000099600000000000000000000000000000000000000000000000000000000000000800000000000000000000000000000000000000000000000000000000000000000",
        "nonce": "0x1046",
        "chainId": "0x1"
      },
      "additionalContracts": [],
      "isFixedGasLimit": false
    },
    {
      "hash": "0x54aafa90cfd915ec939c91d5205d935181c708d07fe6518a3955e57f95919e8e",
      "transactionType": "CALL",
      "contractName": null,
      "contractAddress": "0x9a8c5da383f3b6a4d07fb9fdef3ac54044e5e6be",
      "function": "safeTransferFrom(address,address,uint256,bytes)",
      "arguments": [
        "0xf3e4D421E826a03848254095455ce818Ace25AF6",
        "0xB078b7db743103a17A1Bad664C8172CAC9beF4f3",
        "2426",
        "0x"
      ],
      "transaction": {
        "from": "0xf3e4d421e826a03848254095455ce818ace25af6",
        "to": "0x9a8c5da383f3b6a4d07fb9fdef3ac54044e5e6be",
        "gas": "0x11fc5",
        "value": "0x0",
        "input": "0xb88d4fde000000000000000000000000f3e4d421e826a03848254095455ce818ace25af6000000000000000000000000b078b7db743103a17a1bad664c8172cac9bef4f3000000000000000000000000000000000000000000000000000000000000097a00000000000000000000000000000000000000000000000000000000000000800000000000000000000000000000000000000000000000000000000000000000",
        "nonce": "0x1047",
        "chainId": "0x1"
      },
      "additionalContracts": [],
      "isFixedGasLimit": false
    }
  ],
  "receipts": [
    {
      "status": "0x1",
      "cumulativeGasUsed": "0x16695de",
      "logs": [
        {
          "address": "0x9a8c5da383f3b6a4d07fb9fdef3ac54044e5e6be",
          "topics": [
            "0x8c5be1e5ebec7d5bd14f71427d1e84f3dd0314c0f7b2291e5b200ac8c7c3b925",
            "0x000000000000000000000000f3e4d421e826a03848254095455ce818ace25af6",
            "0x0000000000000000000000000000000000000000000000000000000000000000",
            "0x0000000000000000000000000000000000000000000000000000000000000996"
          ],
          "data": "0x",
          "blockHash": "0xfc5df4f06503cab40849f7a24256a185ff6140fbb00295ea170463c8f7bfca61",
          "blockNumber": "0x14271d5",
          "transactionHash": "0x4bda2c14fde1063b33e1778f8ed51e987350687052c04d9c4e4441269d69047f",
          "transactionIndex": "0xad",
          "logIndex": "0x1c4",
          "removed": false
        },
        {
          "address": "0x9a8c5da383f3b6a4d07fb9fdef3ac54044e5e6be",
          "topics": [
            "0xddf252ad1be2c89b69c2b068fc378daa952ba7f163c4a11628f55a4df523b3ef",
            "0x000000000000000000000000f3e4d421e826a03848254095455ce818ace25af6",
            "0x000000000000000000000000b078b7db743103a17a1bad664c8172cac9bef4f3",
            "0x0000000000000000000000000000000000000000000000000000000000000996"
          ],
          "data": "0x",
          "blockHash": "0xfc5df4f06503cab40849f7a24256a185ff6140fbb00295ea170463c8f7bfca61",
          "blockNumber": "0x14271d5",
          "transactionHash": "0x4bda2c14fde1063b33e1778f8ed51e987350687052c04d9c4e4441269d69047f",
          "transactionIndex": "0xad",
          "logIndex": "0x1c5",
          "removed": false
        }
      ],
      "logsBloom": "0x00000000000002000000000000000010000000000000000000000000100000000000000000000000000000000000000000000000000000000000000000200000000000000000000000000008000000000001000000000100000000000000000000001000020000000000020000000800000000000000000000000010000000000000410000000000000000000000000000000000000000000000000000000000020000000000000000000000000000000000000000000000000000000000000000000002000000000420000000000000000800000000000000000000000020000010000000000000000000000000000000000000000000000000000000000000",
      "type": "0x2",
      "transactionHash": "0x4bda2c14fde1063b33e1778f8ed51e987350687052c04d9c4e4441269d69047f",
      "transactionIndex": "0xad",
      "blockHash": "0xfc5df4f06503cab40849f7a24256a185ff6140fbb00295ea170463c8f7bfca61",
      "blockNumber": "0x14271d5",
      "gasUsed": "0xd058",
      "effectiveGasPrice": "0x4a40830e7",
      "from": "0xf3e4d421e826a03848254095455ce818ace25af6",
      "to": "0x9a8c5da383f3b6a4d07fb9fdef3ac54044e5e6be",
      "contractAddress": null
    },
    {
      "status": "0x1",
      "cumulativeGasUsed": "0x1676636",
      "logs": [
        {
          "address": "0x9a8c5da383f3b6a4d07fb9fdef3ac54044e5e6be",
          "topics": [
            "0x8c5be1e5ebec7d5bd14f71427d1e84f3dd0314c0f7b2291e5b200ac8c7c3b925",
            "0x000000000000000000000000f3e4d421e826a03848254095455ce818ace25af6",
            "0x0000000000000000000000000000000000000000000000000000000000000000",
            "0x000000000000000000000000000000000000000000000000000000000000097a"
          ],
          "data": "0x",
          "blockHash": "0xfc5df4f06503cab40849f7a24256a185ff6140fbb00295ea170463c8f7bfca61",
          "blockNumber": "0x14271d5",
          "transactionHash": "0x54aafa90cfd915ec939c91d5205d935181c708d07fe6518a3955e57f95919e8e",
          "transactionIndex": "0xae",
          "logIndex": "0x1c6",
          "removed": false
        },
        {
          "address": "0x9a8c5da383f3b6a4d07fb9fdef3ac54044e5e6be",
          "topics": [
            "0xddf252ad1be2c89b69c2b068fc378daa952ba7f163c4a11628f55a4df523b3ef",
            "0x000000000000000000000000f3e4d421e826a03848254095455ce818ace25af6",
            "0x000000000000000000000000b078b7db743103a17a1bad664c8172cac9bef4f3",
            "0x000000000000000000000000000000000000000000000000000000000000097a"
          ],
          "data": "0x",
          "blockHash": "0xfc5df4f06503cab40849f7a24256a185ff6140fbb00295ea170463c8f7bfca61",
          "blockNumber": "0x14271d5",
          "transactionHash": "0x54aafa90cfd915ec939c91d5205d935181c708d07fe6518a3955e57f95919e8e",
          "transactionIndex": "0xae",
          "logIndex": "0x1c7",
          "removed": false
        }
      ],
      "logsBloom": "0x00000000000002000000000000000010000000000000000000000000100000000000000000000000000000000000000000000000000000000000004000200000000000000000000000000008000000000000000000000100000000000000000000001000020000000000020000000800000000000000000000000010000000000000000000000000000000000000000000000000000000000000000000000000020000000000000000000000000000000000000000000000000000000000020000000002000000000420000000000000000800000000000000000000000020000010000000080000000000000000000000000000000000000000000000000000",
      "type": "0x2",
      "transactionHash": "0x54aafa90cfd915ec939c91d5205d935181c708d07fe6518a3955e57f95919e8e",
      "transactionIndex": "0xae",
      "blockHash": "0xfc5df4f06503cab40849f7a24256a185ff6140fbb00295ea170463c8f7bfca61",
      "blockNumber": "0x14271d5",
      "gasUsed": "0xd058",
      "effectiveGasPrice": "0x4a40830e7",
      "from": "0xf3e4d421e826a03848254095455ce818ace25af6",
      "to": "0x9a8c5da383f3b6a4d07fb9fdef3ac54044e5e6be",
      "contractAddress": null
    }
  ],
  "libraries": [],
  "pending": [],
  "returns": {},
  "timestamp": 1730933773,
  "chain": 1,
  "commit": "f7b82bf"
}