{
  "transactions": [
    {
      "hash": "0x7ad33d2a2129e29985010415be524347116c1603d320c5b1c9b945e9222d1a13",
      "transactionType": "CALL",
      "contractName": null,
      "contractAddress": "0x9a8c5da383f3b6a4d07fb9fdef3ac54044e5e6be",
      "function": "safeTransferFrom(address,address,uint256,bytes)",
      "arguments": [
        "0xf3e4D421E826a03848254095455ce818Ace25AF6",
        "0xB078b7db743103a17A1Bad664C8172CAC9beF4f3",
        "2651",
        "0x"
      ],
      "transaction": {
        "from": "0xf3e4d421e826a03848254095455ce818ace25af6",
        "to": "0x9a8c5da383f3b6a4d07fb9fdef3ac54044e5e6be",
        "gas": "0x17c09",
        "value": "0x0",
        "input": "0xb88d4fde000000000000000000000000f3e4d421e826a03848254095455ce818ace25af6000000000000000000000000b078b7db743103a17a1bad664c8172cac9bef4f30000000000000000000000000000000000000000000000000000000000000a5b00000000000000000000000000000000000000000000000000000000000000800000000000000000000000000000000000000000000000000000000000000000",
        "nonce": "0x1044",
        "chainId": "0x1"
      },
      "additionalContracts": [],
      "isFixedGasLimit": false
    },
    {
      "hash": "0x761da98f58192cc893123cd139c4f52c817fd2152fc82815ff5141c8d33ab121",
      "transactionType": "CALL",
      "contractName": null,
      "contractAddress": "0x9a8c5da383f3b6a4d07fb9fdef3ac54044e5e6be",
      "function": "safeTransferFrom(address,address,uint256,bytes)",
      "arguments": [
        "0xf3e4D421E826a03848254095455ce818Ace25AF6",
        "0xB078b7db743103a17A1Bad664C8172CAC9beF4f3",
        "2472",
        "0x"
      ],
      "transaction": {
        "from": "0xf3e4d421e826a03848254095455ce818ace25af6",
        "to": "0x9a8c5da383f3b6a4d07fb9fdef3ac54044e5e6be",
        "gas": "0x11fc5",
        "value": "0x0",
        "input": "0xb88d4fde000000000000000000000000f3e4d421e826a03848254095455ce818ace25af6000000000000000000000000b078b7db743103a17a1bad664c8172cac9bef4f300000000000000000000000000000000000000000000000000000000000009a800000000000000000000000000000000000000000000000000000000000000800000000000000000000000000000000000000000000000000000000000000000",
        "nonce": "0x1045",
        "chainId": "0x1"
      },
      "additionalContracts": [],
      "isFixedGasLimit": false
    },
    {
      "hash": null,
      "transactionType": "CALL",
      "contractName": null,
      "contractAddress": "0x9a8c5da383f3b6a4d07fb9fdef3ac54044e5e6be",
      "function": "safeTransferFrom(address,address,uint256,bytes)",
      "arguments": [
        "0xf3e4D421E826a03848254095455ce818Ace25AF6",
        "0xB078b7db743103a17A1Bad664C8172CAC9beF4f3",
        "2454",
        "0x"
      ],
      "transaction": {
        "from": "0xf3e4d421e826a03848254095455ce818ace25af6",
        "to": "0x9a8c5da383f3b6a4d07fb9fdef3ac54044e5e6be",
        "gas": "0x11fc5",
        "value": "0x0",
        "input": "0xb88d4fde000000000000000000000000f3e4d421e826a03848254095455ce818ace25af6000000000000000000000000b078b7db743103a17a1bad664c8172cac9bef4f3000000000000000000000000000000000000000000000000000000000000099600000000000000000000000000000000000000000000000000000000000000800000000000000000000000000000000000000000000000000000000000000000",
        "nonce": "0x1046",
        "chainId": "0x1"
      },
      "additionalContracts": [],
      "isFixedGasLimit": false
    },
    {
      "hash": null,
      "transactionType": "CALL",
      "contractName": null,
      "contractAddress": "0x9a8c5da383f3b6a4d07fb9fdef3ac54044e5e6be",
      "function": "safeTransferFrom(address,address,uint256,bytes)",
      "arguments": [
        "0xf3e4D421E826a03848254095455ce818Ace25AF6",
        "0xB078b7db743103a17A1Bad664C8172CAC9beF4f3",
        "2426",
        "0x"
      ],
      "transaction": {
        "from": "0xf3e4d421e826a03848254095455ce818ace25af6",
        "to": "0x9a8c5da383f3b6a4d07fb9fdef3ac54044e5e6be",
        "gas": "0x11fc5",
        "value": "0x0",
        "input": "0xb88d4fde000000000000000000000000f3e4d421e826a03848254095455ce818ace25af6000000000000000000000000b078b7db743103a17a1bad664c8172cac9bef4f3000000000000000000000000000000000000000000000000000000000000097a00000000000000000000000000000000000000000000000000000000000000800000000000000000000000000000000000000000000000000000000000000000",
        "nonce": "0x1047",
        "chainId": "0x1"
      },
      "additionalContracts": [],
      "isFixedGasLimit": false
    }
  ],
  "receipts": [],
  "libraries": [],
  "pending": [
    "0x7ad33d2a2129e29985010415be524347116c1603d320c5b1c9b945e9222d1a13",
    "0x761da98f58192cc893123cd139c4f52c817fd2152fc82815ff5141c8d33ab121"
  ],
  "returns": {},
  "timestamp": 1730933558,
  "chain": 1,
  "commit": "f7b82bf"
}