{
  "transactions": [
    {
      "hash": "0x6d84179cc05ea248b780c8b7be3ca2a1e868f8913c4e31086db1ad2dedf001fb",
      "transactionType": "CALL",
      "contractName": null,
      "contractAddress": "0xee5085d66fe9d6dd3a52c9197ebc526b730cabb0",
      "function": "reportAddress((address[],bytes32[]))",
      "arguments": [
        "([0x88EC4FaDF351d034e2dCf395883d6F2f12895D70], [0x9a1ffbe0d0a8eb3eb197552ced5afe913162b3e455e41dd22905b3133a50117b])"
      ],
      "transaction": {
        "from": "0x64265cde28238cff36fcabc917361dbcd18ff987",
        "to": "0xee5085d66fe9d6dd3a52c9197ebc526b730cabb0",
        "gas": "0x461ef",
        "value": "0x0",
        "input": "0x9a575ed2000000000000000000000000000000000000000000000000000000000000002000000000000000000000000000000000000000000000000000000000000000400000000000000000000000000000000000000000000000000000000000000080000000000000000000000000000000000000000000000000000000000000000100000000000000000000000088ec4fadf351d034e2dcf395883d6f2f12895d7000000000000000000000000000000000000000000000000000000000000000019a1ffbe0d0a8eb3eb197552ced5afe913162b3e455e41dd22905b3133a50117b",
        "nonce": "0x74",
        "chainId": "0xaa36a7"
      },
      "additionalContracts": [],
      "isFixedGasLimit": false
    }
  ],
  "receipts": [
    {
      "status": "0x1",
      "cumulativeGasUsed": "0xaba631",
      "logs": [
        {
          "address": "0xee5085d66fe9d6dd3a52c9197ebc526b730cabb0",
          "topics": [
            "0x3ad95bd91feadcfb464a338d5c33c878c1126db2d745b7f510e25fd7563ae10b",
            "0x00000000000000000000000088ec4fadf351d034e2dcf395883d6f2f12895d70"
          ],
          "data": "0x9a1ffbe0d0a8eb3eb197552ced5afe913162b3e455e41dd22905b3133a50117b",
          "blockHash": "0xa0c2fb422dce8e22048d3047a3ca6087a1e44b9c7fa82446b8c75cbb7fd545a4",
          "blockNumber": "0x6b1807",
          "transactionHash": "0x6d84179cc05ea248b780c8b7be3ca2a1e868f8913c4e31086db1ad2dedf001fb",
          "transactionIndex": "0x4f",
          "logIndex": "0x95",
          "removed": false
        },
        {
          "address": "0xee5085d66fe9d6dd3a52c9197ebc526b730cabb0",
          "topics": [
            "0xb25b4d8375f07e9ad3696e81d48b221eb1184c97f8fb5f4b4cee9b5d28dab212"
          ],
          "data": "0x00000000000000000000000000000000000000000000000000000000000000200000000000000000000000000000000000000000000000000000000000000001000000000000000000000000000000000000000000000000000000000000000000000000000000000000000088ec4fadf351d034e2dcf395883d6f2f12895d709a1ffbe0d0a8eb3eb197552ced5afe913162b3e455e41dd22905b3133a50117b00000000000000000000000000000000000000000000000000000000672a6338",
          "blockHash": "0xa0c2fb422dce8e22048d3047a3ca6087a1e44b9c7fa82446b8c75cbb7fd545a4",
          "blockNumber": "0x6b1807",
          "transactionHash": "0x6d84179cc05ea248b780c8b7be3ca2a1e868f8913c4e31086db1ad2dedf001fb",
          "transactionIndex": "0x4f",
          "logIndex": "0x96",
          "removed": false
        }
      ],
      "logsBloom": "0x00008000000000000000000000000000000000000000040000000000000000000000000000000000000008000000000000000000000000000000000000000000000000000000000000000000000000000000000000000000000000000000000000000000000000000400000000000000000000000000000000000000000000020000000000000000000000000040000000000000000000000020000000000000000000000000000000000000000000000000000000000000000000000000000000000000000800000000000000000000000000000000000000002000000000000000002000000000080000000000000000000000000000000000000040000000",
      "type": "0x2",
      "transactionHash": "0x6d84179cc05ea248b780c8b7be3ca2a1e868f8913c4e31086db1ad2dedf001fb",
      "transactionIndex": "0x4f",
      "blockHash": "0xa0c2fb422dce8e22048d3047a3ca6087a1e44b9c7fa82446b8c75cbb7fd545a4",
      "blockNumber": "0x6b1807",
      "gasUsed": "0x2ff23",
      "effectiveGasPrice": "0x238f80ea6",
      "from": "0x64265cde28238cff36fcabc917361dbcd18ff987",
      "to": "0xee5085d66fe9d6dd3a52c9197ebc526b730cabb0",
      "contractAddress": null
    }
  ],
  "libraries": [],
  "pending": [],
  "returns": {},
  "timestamp": 1730831166,
  "chain": 11155111,
  "commit": "1006997"
}