{
  "transactions": [
    {
      "hash": "0xa399a1b04a036c2c718355a0f9ceb78ccd91bd2f71b9a6a984084ca8b178d3ee",
      "transactionType": "CREATE",
      "contractName": "Blacklist",
      "contractAddress": "0xee5085d66fe9d6dd3a52c9197ebc526b730cabb0",
      "function": null,
      "arguments": null,
      "transaction": {
        "from": "0x64265cde28238cff36fcabc917361dbcd18ff987",
        "gas": "0x100ed6",
        "value": "0x0",
        "input": "0x608060405234801561001057600080fd5b50338061003757604051631e4fbdf760e01b81526000600482015260240160405180910390fd5b61004081610046565b50610096565b600080546001600160a01b038381166001600160a01b0319831681178455604051919092169283917f8be0079c531659141344cd1fd0a4f28419497f9722a3daafe3b4186f6b6457e09190a35050565b610d37806100a56000396000f3fe608060405234801561001057600080fd5b506004361061009e5760003560e01c806388893e061161006657806388893e061461017a5780638da5cb5b146101b65780639a575ed2146101d1578063def1d6c1146101e4578063f2fde38b1461020457600080fd5b80630bfebb28146100a35780635c223dac146100cc5780636fca8d6c146100df578063715018a61461013157806371a5817a1461013b575b600080fd5b6100b66100b1366004610aaf565b610217565b6040516100c39190610ad1565b60405180910390f35b6100b66100da366004610aaf565b6102bb565b6101126100ed366004610aaf565b60016020526000908152604090205460ff81169061010090046001600160a01b031682565b6040805192151583526001600160a01b039091166020830152016100c3565b610139610481565b005b61014e610149366004610b41565b610495565b6040805160ff90951685526001600160a01b0390931660208501529183015260608201526080016100c3565b6101a6610188366004610aaf565b6001600160a01b031660009081526001602052604090205460ff1690565b60405190151581526020016100c3565b6000546040516001600160a01b0390911681526020016100c3565b6101396101df366004610b6b565b6104e8565b6101f76101f2366004610aaf565b61065e565b6040516100c39190610ba6565b610139610212366004610aaf565b6106cd565b6001600160a01b0381166000908152600260209081526040808320805482518185028101850190935280835260609492939192909184015b828210156102b05760008481526020908190206040805160808101825260038602909201805460ff8116845261010090046001600160a01b03168385015260018082015492840192909252600201546060830152908352909201910161024f565b505050509050919050565b60606001600160a01b0382166102e45760405163b4fa3fb360e01b815260040160405180910390fd5b6001600160a01b03821660009081526003602052604090205461031a5760405163d4bf5b2960e01b815260040160405180910390fd5b3360009081526003602052604081205467ffffffffffffffff81111561034257610342610bea565b60405190808252806020026020018201604052801561039457816020015b6040805160808101825260008082526020808301829052928201819052606082015282526000199092019101816103605790505b50905060005b3360009081526003602052604090205481101561047a576001600160a01b038416600090815260026020908152604080832033845260039092529091208054839081106103e9576103e9610c00565b90600052602060002001548154811061040457610404610c00565b6000918252602091829020604080516080810182526003909302909101805460ff811684526001600160a01b0361010090910416938301939093526001830154908201526002909101546060820152825183908390811061046757610467610c00565b602090810291909101015260010161039a565b5092915050565b610489610710565b610493600061073d565b565b600260205281600052604060002081815481106104b157600080fd5b600091825260209091206003909102018054600182015460029092015460ff821694506101009091046001600160a01b0316925084565b60006104f48280610c16565b90501115806105125750600061050d6020830183610c16565b905011155b156105305760405163b4fa3fb360e01b815260040160405180910390fd5b61053d6020820182610c16565b90506105498280610c16565b9050146105695760405163b4fa3fb360e01b815260040160405180910390fd5b60005b6105768280610c16565b90508160ff16101561065a576105e560016105918480610c16565b8460ff168181106105a4576105a4610c00565b90506020020160208101906105b99190610aaf565b6105c66020860186610c16565b8560ff168181106105d9576105d9610c00565b9050602002013561078d565b610648816105f38480610c16565b8460ff1681811061060657610606610c00565b905060200201602081019061061b9190610aaf565b6106286020860186610c16565b8560ff1681811061063b5761063b610c00565b90506020020135426108cb565b8061065281610c67565b91505061056c565b5050565b6001600160a01b0381166000908152600160208181526040928390209091018054835181840281018401909452808452606093928301828280156106c157602002820191906000526020600020905b8154815260200190600101908083116106ad575b50505050509050919050565b6106d5610710565b6001600160a01b03811661070457604051631e4fbdf760e01b8152600060048201526024015b60405180910390fd5b61070d8161073d565b50565b6000546001600160a01b031633146104935760405163118cdaa760e01b81523360048201526024016106fb565b600080546001600160a01b038381166001600160a01b0319831681178455604051919092169283917f8be0079c531659141344cd1fd0a4f28419497f9722a3daafe3b4186f6b6457e09190a35050565b6001600160a01b03821615806107ab57506001600160a01b03821633145b156107c95760405163b4fa3fb360e01b815260040160405180910390fd5b806107e75760405163b4fa3fb360e01b815260040160405180910390fd5b6001600160a01b0382166000908152600160205260409020805460ff166108675780546001600160a81b031916841515610100600160a81b031916176101006001600160a01b038516021781556040805160018082528183019092529060208083019080368337505081516108659260018501925060200190610a33565b505b600180820180549182018155600090815260209020018290556040516001600160a01b038416907f3ad95bd91feadcfb464a338d5c33c878c1126db2d745b7f510e25fd7563ae10b906108bd9085815260200190565b60405180910390a250505050565b6001600160a01b0383166108f25760405163b4fa3fb360e01b815260040160405180910390fd5b816109105760405163b4fa3fb360e01b815260040160405180910390fd5b428111156109315760405163b4fa3fb360e01b815260040160405180910390fd5b60408051608080820183526000808352602080840182905283850182905260609384018290528451928301855260ff89811684526001600160a01b038981168584018181528689018b81529787018a815233875260038087528a882084895260028089528c8a208054835460018082018655948d528b8d20015580548084018255818c52998b208c519a90940290930180549551909716610100026001600160a81b03199095169890971697909717929092178455975194830194909455955191015592905291517fb25b4d8375f07e9ad3696e81d48b221eb1184c97f8fb5f4b4cee9b5d28dab21291610a2491610c94565b60405180910390a15050505050565b828054828255906000526020600020908101928215610a6e579160200282015b82811115610a6e578251825591602001919060010190610a53565b50610a7a929150610a7e565b5090565b5b80821115610a7a5760008155600101610a7f565b80356001600160a01b0381168114610aaa57600080fd5b919050565b600060208284031215610ac157600080fd5b610aca82610a93565b9392505050565b602080825282518282018190526000919060409081850190868401855b82811015610b34578151805160ff168552868101516001600160a01b03168786015285810151868601526060908101519085015260809093019290850190600101610aee565b5091979650505050505050565b60008060408385031215610b5457600080fd5b610b5d83610a93565b946020939093013593505050565b600060208284031215610b7d57600080fd5b813567ffffffffffffffff811115610b9457600080fd5b820160408185031215610aca57600080fd5b6020808252825182820181905260009190848201906040850190845b81811015610bde57835183529284019291840191600101610bc2565b50909695505050505050565b634e487b7160e01b600052604160045260246000fd5b634e487b7160e01b600052603260045260246000fd5b6000808335601e19843603018112610c2d57600080fd5b83018035915067ffffffffffffffff821115610c4857600080fd5b6020019150600581901b3603821315610c6057600080fd5b9250929050565b600060ff821660ff8103610c8b57634e487b7160e01b600052601160045260246000fd5b60010192915050565b60006020808301602084528085548083526040925060408601915086600052602060002060005b82811015610b3457815460ff8116855260081c6001600160a01b031686850152600180830154868601526002830154606086015260809094019360039092019101610cbb56fea2646970667358221220c74460837773378212979465993ab3215a7ba802321d6a239a4e75e34bced2ef64736f6c63430008180033",
        "nonce": "0x72",
        "chainId": "0xaa36a7"
      },
      "additionalContracts": [],
      "isFixedGasLimit": false
    },
    {
      "hash": "0x35bada2941fc601f62456ca0e49f20a6fd5a16a6204b2e8eb4594cf723f66a05",
      "transactionType": "CALL",
      "contractName": "Blacklist",
      "contractAddress": "0xee5085d66fe9d6dd3a52c9197ebc526b730cabb0",
      "function": "reportAddress((address[],bytes32[]))",
      "arguments": [
        "([0x58172e0b0fFB243D6F691d5b30152b6032f12a06, 0x7DBB4bdCfE614398D1a68ecc219F15280d0959E0, 0x444ab79616b4a790dC7Ffa9cEb8Dc82Cbc47cCDD], [0xcbe633433eee6c07bd6f5a0d54541c81f6e5281c2bdf60001c4e12d8051dafeb, 0x50ec052a3705c1d1a4639485ca814596ffa89a41ae4df3edf7bfde20e8577a9c, 0x15a9ccd3fbc2dc1a07fa2b6f44bfa189619a672970650ebebc52665fe24c4e5e])"
      ],
      "transaction": {
        "from": "0x64265cde28238cff36fcabc917361dbcd18ff987",
        "to": "0xee5085d66fe9d6dd3a52c9197ebc526b730cabb0",
        "gas": "0xb98f3",
        "value": "0x0",
        "input": "0x9a575ed20000000000000000000000000000000000000000000000000000000000000020000000000000000000000000000000000000000000000000000000000000004000000000000000000000000000000000000000000000000000000000000000c0000000000000000000000000000000000000000000000000000000000000000300000000000000000000000058172e0b0ffb243d6f691d5b30152b6032f12a060000000000000000000000007dbb4bdcfe614398d1a68ecc219f15280d0959e0000000000000000000000000444ab79616b4a790dc7ffa9ceb8dc82cbc47ccdd0000000000000000000000000000000000000000000000000000000000000003cbe633433eee6c07bd6f5a0d54541c81f6e5281c2bdf60001c4e12d8051dafeb50ec052a3705c1d1a4639485ca814596ffa89a41ae4df3edf7bfde20e8577a9c15a9ccd3fbc2dc1a07fa2b6f44bfa189619a672970650ebebc52665fe24c4e5e",
        "nonce": "0x73",
        "chainId": "0xaa36a7"
      },
      "additionalContracts": [],
      "isFixedGasLimit": false
    }
  ],
  "receipts": [
    {
      "status": "0x1",
      "cumulativeGasUsed": "0xdfd846",
      "logs": [
        {
          "address": "0xee5085d66fe9d6dd3a52c9197ebc526b730cabb0",
          "topics": [
            "0x8be0079c531659141344cd1fd0a4f28419497f9722a3daafe3b4186f6b6457e0",
            "0x0000000000000000000000000000000000000000000000000000000000000000",
            "0x00000000000000000000000064265cde28238cff36fcabc917361dbcd18ff987"
          ],
          "data": "0x",
          "blockHash": "0x58c824a1a987833d47e3e2dc96707be93d118c74144751e3c1073efbea16e2e3",
          "blockNumber": "0x6b17ca",
          "transactionHash": "0xa399a1b04a036c2c718355a0f9ceb78ccd91bd2f71b9a6a984084ca8b178d3ee",
          "transactionIndex": "0x51",
          "logIndex": "0x94",
          "removed": false
        }
      ],
      "logsBloom": "0x00008000000000000000000000000000000000000000000000800000000000000000000000000000000000000000000000000000000000000000000000000000000000000000000000000010000000000001000000000000000000000000000000000000020000000400000000000800000000000000000000000000000000400000000000000000000000000000000000000000000000000000000000000000000000000000000000000000000000000000000000000000000000000000000000000000000000000000000000000000000000000000000000000000000020000000000000000000080000000000000000000000000000400000000000001000",
      "type": "0x2",
      "transactionHash": "0xa399a1b04a036c2c718355a0f9ceb78ccd91bd2f71b9a6a984084ca8b178d3ee",
      "transactionIndex": "0x51",
      "blockHash": "0x58c824a1a987833d47e3e2dc96707be93d118c74144751e3c1073efbea16e2e3",
      "blockNumber": "0x6b17ca",
      "gasUsed": "0xc5b0d",
      "effectiveGasPrice": "0x2130257de",
      "from": "0x64265cde28238cff36fcabc917361dbcd18ff987",
      "to": null,
      "contractAddress": "0xee5085d66fe9d6dd3a52c9197ebc526b730cabb0"
    },
    {
      "status": "0x1",
      "cumulativeGasUsed": "0xe83dbe",
      "logs": [
        {
          "address": "0xee5085d66fe9d6dd3a52c9197ebc526b730cabb0",
          "topics": [
            "0x3ad95bd91feadcfb464a338d5c33c878c1126db2d745b7f510e25fd7563ae10b",
            "0x00000000000000000000000058172e0b0ffb243d6f691d5b30152b6032f12a06"
          ],
          "data": "0xcbe633433eee6c07bd6f5a0d54541c81f6e5281c2bdf60001c4e12d8051dafeb",
          "blockHash": "0x58c824a1a987833d47e3e2dc96707be93d118c74144751e3c1073efbea16e2e3",
          "blockNumber": "0x6b17ca",
          "transactionHash": "0x35bada2941fc601f62456ca0e49f20a6fd5a16a6204b2e8eb4594cf723f66a05",
          "transactionIndex": "0x52",
          "logIndex": "0x95",
          "removed": false
        },
        {
          "address": "0xee5085d66fe9d6dd3a52c9197ebc526b730cabb0",
          "topics": [
            "0xb25b4d8375f07e9ad3696e81d48b221eb1184c97f8fb5f4b4cee9b5d28dab212"
          ],
          "data": "0x00000000000000000000000000000000000000000000000000000000000000200000000000000000000000000000000000000000000000000000000000000001000000000000000000000000000000000000000000000000000000000000000000000000000000000000000058172e0b0ffb243d6f691d5b30152b6032f12a06cbe633433eee6c07bd6f5a0d54541c81f6e5281c2bdf60001c4e12d8051dafeb00000000000000000000000000000000000000000000000000000000672a5ff0",
          "blockHash": "0x58c824a1a987833d47e3e2dc96707be93d118c74144751e3c1073efbea16e2e3",
          "blockNumber": "0x6b17ca",
          "transactionHash": "0x35bada2941fc601f62456ca0e49f20a6fd5a16a6204b2e8eb4594cf723f66a05",
          "transactionIndex": "0x52",
          "logIndex": "0x96",
          "removed": false
        },
        {
          "address": "0xee5085d66fe9d6dd3a52c9197ebc526b730cabb0",
          "topics": [
            "0x3ad95bd91feadcfb464a338d5c33c878c1126db2d745b7f510e25fd7563ae10b",
            "0x0000000000000000000000007dbb4bdcfe614398d1a68ecc219f15280d0959e0"
          ],
          "data": "0x50ec052a3705c1d1a4639485ca814596ffa89a41ae4df3edf7bfde20e8577a9c",
          "blockHash": "0x58c824a1a987833d47e3e2dc96707be93d118c74144751e3c1073efbea16e2e3",
          "blockNumber": "0x6b17ca",
          "transactionHash": "0x35bada2941fc601f62456ca0e49f20a6fd5a16a6204b2e8eb4594cf723f66a05",
          "transactionIndex": "0x52",
          "logIndex": "0x97",
          "removed": false
        },
        {
          "address": "0xee5085d66fe9d6dd3a52c9197ebc526b730cabb0",
          "topics": [
            "0xb25b4d8375f07e9ad3696e81d48b221eb1184c97f8fb5f4b4cee9b5d28dab212"
          ],
          "data": "0x0000000000000000000000000000000000000000000000000000000000000020000000000000000000000000000000000000000000000000000000000000000100000000000000000000000000000000000000000000000000000000000000010000000000000000000000007dbb4bdcfe614398d1a68ecc219f15280d0959e050ec052a3705c1d1a4639485ca814596ffa89a41ae4df3edf7bfde20e8577a9c00000000000000000000000000000000000000000000000000000000672a5ff0",
          "blockHash": "0x58c824a1a987833d47e3e2dc96707be93d118c74144751e3c1073efbea16e2e3",
          "blockNumber": "0x6b17ca",
          "transactionHash": "0x35bada2941fc601f62456ca0e49f20a6fd5a16a6204b2e8eb4594cf723f66a05",
          "transactionIndex": "0x52",
          "logIndex": "0x98",
          "removed": false
        },
        {
          "address": "0xee5085d66fe9d6dd3a52c9197ebc526b730cabb0",
          "topics": [
            "0x3ad95bd91feadcfb464a338d5c33c878c1126db2d745b7f510e25fd7563ae10b",
            "0x000000000000000000000000444ab79616b4a790dc7ffa9ceb8dc82cbc47ccdd"
          ],
          "data": "0x15a9ccd3fbc2dc1a07fa2b6f44bfa189619a672970650ebebc52665fe24c4e5e",
          "blockHash": "0x58c824a1a987833d47e3e2dc96707be93d118c74144751e3c1073efbea16e2e3",
          "blockNumber": "0x6b17ca",
          "transactionHash": "0x35bada2941fc601f62456ca0e49f20a6fd5a16a6204b2e8eb4594cf723f66a05",
          "transactionIndex": "0x52",
          "logIndex": "0x99",
          "removed": false
        },
        {
          "address": "0xee5085d66fe9d6dd3a52c9197ebc526b730cabb0",
          "topics": [
            "0xb25b4d8375f07e9ad3696e81d48b221eb1184c97f8fb5f4b4cee9b5d28dab212"
          ],
          "data": "0x000000000000000000000000000000000000000000000000000000000000002000000000000000000000000000000000000000000000000000000000000000010000000000000000000000000000000000000000000000000000000000000002000000000000000000000000444ab79616b4a790dc7ffa9ceb8dc82cbc47ccdd15a9ccd3fbc2dc1a07fa2b6f44bfa189619a672970650ebebc52665fe24c4e5e00000000000000000000000000000000000000000000000000000000672a5ff0",
          "blockHash": "0x58c824a1a987833d47e3e2dc96707be93d118c74144751e3c1073efbea16e2e3",
          "blockNumber": "0x6b17ca",
          "transactionHash": "0x35bada2941fc601f62456ca0e49f20a6fd5a16a6204b2e8eb4594cf723f66a05",
          "transactionIndex": "0x52",
          "logIndex": "0x9a",
          "removed": false
        }
      ],
      "logsBloom": "0x00008000000000000000000000000000000000000000000000000000000000000000000004000000080008000000000000000000000000000000000000000000000000000000020000000000000000000000000000000000000000000000000000000000000000000400000000000000000000200000000000000000000000000000000000000000080000000040000000020000000000000020000000000000000000002000000000000000000000000000000000000000000000000000000000000000000800000000000000000000000000000000000000000100000000000000002000000000080008000000000000000000000000000000000040000000",
      "type": "0x2",
      "transactionHash": "0x35bada2941fc601f62456ca0e49f20a6fd5a16a6204b2e8eb4594cf723f66a05",
      "transactionIndex": "0x52",
      "blockHash": "0x58c824a1a987833d47e3e2dc96707be93d118c74144751e3c1073efbea16e2e3",
      "blockNumber": "0x6b17ca",
      "gasUsed": "0x86578",
      "effectiveGasPrice": "0x2130257de",
      "from": "0x64265cde28238cff36fcabc917361dbcd18ff987",
      "to": "0xee5085d66fe9d6dd3a52c9197ebc526b730cabb0",
      "contractAddress": null
    }
  ],
  "libraries": [],
  "pending": [],
  "returns": {},
  "timestamp": 1730830360,
  "chain": 11155111,
  "commit": "1006997"
}